{
  "_format": "hh-sol-artifact-1",
  "contractName": "Lottery",
  "sourceName": "contracts/lottery04.sol",
  "abi": [
    {
      "inputs": [
        {
          "internalType": "address",
          "name": "_vrfCoordinator",
          "type": "address"
        },
        {
          "internalType": "address",
          "name": "_link",
          "type": "address"
        },
        {
          "internalType": "bytes32",
          "name": "_keyHash",
          "type": "bytes32"
        },
        {
          "internalType": "address",
          "name": "_token",
          "type": "address"
        },
        {
          "internalType": "uint256",
          "name": "_tokenPerEntry",
          "type": "uint256"
        },
        {
          "internalType": "address",
          "name": "_rewardWallet",
          "type": "address"
        },
        {
          "internalType": "address",
          "name": "_admin",
          "type": "address"
        }
      ],
      "stateMutability": "nonpayable",
      "type": "constructor"
    },
    {
      "inputs": [
        {
          "internalType": "address",
          "name": "owner",
          "type": "address"
        }
      ],
      "name": "OwnableInvalidOwner",
      "type": "error"
    },
    {
      "inputs": [
        {
          "internalType": "address",
          "name": "account",
          "type": "address"
        }
      ],
      "name": "OwnableUnauthorizedAccount",
      "type": "error"
    },
    {
      "anonymous": false,
      "inputs": [
        {
          "indexed": true,
          "internalType": "address",
          "name": "previousOwner",
          "type": "address"
        },
        {
          "indexed": true,
          "internalType": "address",
          "name": "newOwner",
          "type": "address"
        }
      ],
      "name": "OwnershipTransferred",
      "type": "event"
    },
    {
      "anonymous": false,
      "inputs": [
        {
          "indexed": true,
          "internalType": "address",
          "name": "user",
          "type": "address"
        },
        {
          "indexed": false,
          "internalType": "uint256",
          "name": "userId",
          "type": "uint256"
        }
      ],
      "name": "UserEntered",
      "type": "event"
    },
    {
      "anonymous": false,
      "inputs": [
        {
          "indexed": false,
          "internalType": "address",
          "name": "winner",
          "type": "address"
        },
        {
          "indexed": false,
          "internalType": "uint256",
          "name": "prize",
          "type": "uint256"
        }
      ],
      "name": "WinnerSelected",
      "type": "event"
    },
    {
      "inputs": [
        {
          "internalType": "address",
          "name": "_admin",
          "type": "address"
        }
      ],
      "name": "addAdmin",
      "outputs": [],
      "stateMutability": "nonpayable",
      "type": "function"
    },
    {
      "inputs": [
        {
          "internalType": "address",
          "name": "",
          "type": "address"
        }
      ],
      "name": "admins",
      "outputs": [
        {
          "internalType": "bool",
          "name": "",
          "type": "bool"
        }
      ],
      "stateMutability": "view",
      "type": "function"
    },
    {
      "inputs": [],
      "name": "currentPool",
      "outputs": [
        {
          "internalType": "uint256",
          "name": "",
          "type": "uint256"
        }
      ],
      "stateMutability": "view",
      "type": "function"
    },
    {
      "inputs": [],
      "name": "declareWinner",
      "outputs": [],
      "stateMutability": "nonpayable",
      "type": "function"
    },
    {
      "inputs": [],
      "name": "enterLottery",
      "outputs": [],
      "stateMutability": "nonpayable",
      "type": "function"
    },
    {
      "inputs": [],
      "name": "generateRandomNumber",
      "outputs": [],
      "stateMutability": "nonpayable",
      "type": "function"
    },
    {
      "inputs": [],
      "name": "generatedRandomNumber",
      "outputs": [
        {
          "internalType": "uint256",
          "name": "",
          "type": "uint256"
        }
      ],
      "stateMutability": "view",
      "type": "function"
    },
    {
      "inputs": [],
      "name": "getCurrentPool",
      "outputs": [
        {
          "internalType": "uint256",
          "name": "",
          "type": "uint256"
        }
      ],
      "stateMutability": "view",
      "type": "function"
    },
    {
      "inputs": [],
      "name": "getLastPrize",
      "outputs": [
        {
          "internalType": "uint256",
          "name": "",
          "type": "uint256"
        }
      ],
      "stateMutability": "view",
      "type": "function"
    },
    {
      "inputs": [],
      "name": "getLastWinner",
      "outputs": [
        {
          "internalType": "address",
          "name": "",
          "type": "address"
        }
      ],
      "stateMutability": "view",
      "type": "function"
    },
    {
      "inputs": [],
      "name": "lastPrize",
      "outputs": [
        {
          "internalType": "uint256",
          "name": "",
          "type": "uint256"
        }
      ],
      "stateMutability": "view",
      "type": "function"
    },
    {
      "inputs": [],
      "name": "lastWinner",
      "outputs": [
        {
          "internalType": "address",
          "name": "",
          "type": "address"
        }
      ],
      "stateMutability": "view",
      "type": "function"
    },
    {
      "inputs": [],
      "name": "nextUserId",
      "outputs": [
        {
          "internalType": "uint256",
          "name": "",
          "type": "uint256"
        }
      ],
      "stateMutability": "view",
      "type": "function"
    },
    {
      "inputs": [],
      "name": "owner",
      "outputs": [
        {
          "internalType": "address",
          "name": "",
          "type": "address"
        }
      ],
      "stateMutability": "view",
      "type": "function"
    },
    {
      "inputs": [
        {
          "internalType": "bytes32",
          "name": "requestId",
          "type": "bytes32"
        },
        {
          "internalType": "uint256",
          "name": "randomness",
          "type": "uint256"
        }
      ],
      "name": "rawFulfillRandomness",
      "outputs": [],
      "stateMutability": "nonpayable",
      "type": "function"
    },
    {
      "inputs": [
        {
          "internalType": "address",
          "name": "_admin",
          "type": "address"
        }
      ],
      "name": "removeAdmin",
      "outputs": [],
      "stateMutability": "nonpayable",
      "type": "function"
    },
    {
      "inputs": [],
      "name": "renounceOwnership",
      "outputs": [],
      "stateMutability": "nonpayable",
      "type": "function"
    },
    {
      "inputs": [],
      "name": "rewardWallet",
      "outputs": [
        {
          "internalType": "address",
          "name": "",
          "type": "address"
        }
      ],
      "stateMutability": "view",
      "type": "function"
    },
    {
      "inputs": [
        {
          "internalType": "uint256",
          "name": "_tokenPerEntry",
          "type": "uint256"
        }
      ],
      "name": "setTokenPerEntry",
      "outputs": [],
      "stateMutability": "nonpayable",
      "type": "function"
    },
    {
      "inputs": [],
      "name": "token",
      "outputs": [
        {
          "internalType": "contract IERC20",
          "name": "",
          "type": "address"
        }
      ],
      "stateMutability": "view",
      "type": "function"
    },
    {
      "inputs": [],
      "name": "tokenPerEntry",
      "outputs": [
        {
          "internalType": "uint256",
          "name": "",
          "type": "uint256"
        }
      ],
      "stateMutability": "view",
      "type": "function"
    },
    {
      "inputs": [
        {
          "internalType": "address",
          "name": "newOwner",
          "type": "address"
        }
      ],
      "name": "transferOwnership",
      "outputs": [],
      "stateMutability": "nonpayable",
      "type": "function"
    },
    {
      "inputs": [
        {
          "internalType": "uint256",
          "name": "",
          "type": "uint256"
        }
      ],
      "name": "userIds",
      "outputs": [
        {
          "internalType": "address",
          "name": "",
          "type": "address"
        }
      ],
      "stateMutability": "view",
      "type": "function"
    },
    {
      "inputs": [
        {
          "internalType": "address",
          "name": "",
          "type": "address"
        }
      ],
      "name": "winnings",
      "outputs": [
        {
          "internalType": "uint256",
          "name": "",
          "type": "uint256"
        }
      ],
      "stateMutability": "view",
      "type": "function"
    },
    {
      "inputs": [],
      "name": "withdrawLink",
      "outputs": [],
      "stateMutability": "nonpayable",
      "type": "function"
    }
  ],
  "bytecode": "0x60c06040523480156200001157600080fd5b50604051620011d7380380620011d783398101604081905262000034916200014e565b6001600160a01b0380881660a052861660805233806200006e57604051631e4fbdf760e01b81526000600482015260240160405180910390fd5b6200007981620000df565b50600494909455655af3107a4000600555600280546001600160a01b03199081166001600160a01b039586161790915560039290925560068054909216908316179055166000908152600c60205260409020805460ff1916600117905550620001d19050565b600180546001600160a01b038381166001600160a01b0319831681179093556040519116919082907f8be0079c531659141344cd1fd0a4f28419497f9722a3daafe3b4186f6b6457e090600090a35050565b80516001600160a01b03811681146200014957600080fd5b919050565b600080600080600080600060e0888a0312156200016a57600080fd5b620001758862000131565b9650620001856020890162000131565b9550604088015194506200019c6060890162000131565b935060808801519250620001b360a0890162000131565b9150620001c360c0890162000131565b905092959891949750929550565b60805160a051610fcb6200020c6000396000818161099b0152610c57015260008181610777015281816108660152610c280152610fcb6000f3fe608060405234801561001057600080fd5b50600436106101735760003560e01c80638da5cb5b116100de578063c1af578511610097578063f88649a111610071578063f88649a1146102f2578063fb75b2c714610303578063fc0c546a14610316578063fe1881841461032957600080fd5b8063c1af5785146102b7578063ea3a1499146102bf578063f2fde38b146102df57600080fd5b80638da5cb5b146102665780638dc654a21461027757806394985ddd1461027f5780639d400a0b14610292578063a1e6a2551461029b578063b97678ab146102a457600080fd5b8063429b62e511610130578063429b62e5146101c65780634635fd68146101f9578063692b69ae1461023a5780637048027514610243578063715018a614610256578063773a11541461025e57600080fd5b80630cfa61311461017857806314034bd21461018f5780631785f53c146101995780631a595f65146101ac57806322da2aa8146101b457806327855db5146101bd575b600080fd5b6008545b6040519081526020015b60405180910390f35b61019761033c565b005b6101976101a7366004610d9f565b61065f565b60095461017c565b61017c60035481565b61017c600b5481565b6101e96101d4366004610d9f565b600c6020526000908152604090205460ff1681565b6040519015158152602001610186565b610222610207366004610dcf565b600d602052600090815260409020546001600160a01b031681565b6040516001600160a01b039091168152602001610186565b61017c60095481565b610197610251366004610d9f565b6106f0565b61019761071c565b610197610730565b6001546001600160a01b0316610222565b610197610849565b61019761028d366004610de8565b610990565b61017c60085481565b61017c600a5481565b6101976102b2366004610dcf565b610a0e565b610197610a1b565b61017c6102cd366004610d9f565b600e6020526000908152604090205481565b6101976102ed366004610d9f565b610b6a565b6007546001600160a01b0316610222565b600654610222906001600160a01b031681565b600254610222906001600160a01b031681565b600754610222906001600160a01b031681565b336000908152600c602052604090205460ff166103745760405162461bcd60e51b815260040161036b90610e0a565b60405180910390fd5b600b546000036103d45760405162461bcd60e51b815260206004820152602560248201527f52616e646f6d206e756d626572206d7573742062652067656e65726174656420604482015264199a5c9cdd60da1b606482015260840161036b565b6000600a54600b546103e69190610e61565b6000818152600d6020526040812054600780546001600160a01b0319166001600160a01b0390921691909117905560095491925090606490610429906005610e8b565b6104339190610ea2565b90506000816009546104459190610eb6565b60025460075460405163a9059cbb60e01b81526001600160a01b03918216600482015260248101849052929350169063a9059cbb906044016020604051808303816000875af115801561049c573d6000803e3d6000fd5b505050506040513d601f19601f820116820180604052508101906104c09190610ec9565b61050c5760405162461bcd60e51b815260206004820152601960248201527f5472616e7366657220746f2077696e6e6572206661696c656400000000000000604482015260640161036b565b60025460065460405163a9059cbb60e01b81526001600160a01b0391821660048201526024810185905291169063a9059cbb906044016020604051808303816000875af1158015610561573d6000803e3d6000fd5b505050506040513d601f19601f820116820180604052508101906105859190610ec9565b6105d15760405162461bcd60e51b815260206004820181905260248201527f5472616e7366657220746f207265776172642077616c6c6574206661696c6564604482015260640161036b565b60088190556007546001600160a01b03166000908152600e602052604081208054839290610600908490610eeb565b9091555050600754604080516001600160a01b039092168252602082018390527f75060f9e79552df167b73353fee6237a75bb5ba8ea022f77224e32f152138bcb910160405180910390a1505060006009819055600a819055600b5550565b610667610ba5565b6001600160a01b0381166000908152600c602052604090205460ff166106cf5760405162461bcd60e51b815260206004820152601760248201527f41646472657373206973206e6f7420616e2061646d696e000000000000000000604482015260640161036b565b6001600160a01b03166000908152600c60205260409020805460ff19169055565b6106f8610ba5565b6001600160a01b03166000908152600c60205260409020805460ff19166001179055565b610724610ba5565b61072e6000610bd2565b565b336000908152600c602052604090205460ff1661075f5760405162461bcd60e51b815260040161036b90610e0a565b6005546040516370a0823160e01b81523060048201527f00000000000000000000000000000000000000000000000000000000000000006001600160a01b0316906370a0823190602401602060405180830381865afa1580156107c6573d6000803e3d6000fd5b505050506040513d601f19601f820116820180604052508101906107ea9190610efe565b10156108385760405162461bcd60e51b815260206004820152601a60248201527f4e6f7420656e6f756768204c494e4b20746f2070617920666565000000000000604482015260640161036b565b610846600454600554610c24565b50565b610851610ba5565b6040516370a0823160e01b81523060048201527f00000000000000000000000000000000000000000000000000000000000000006001600160a01b03169063a9059cbb90339083906370a0823190602401602060405180830381865afa1580156108bf573d6000803e3d6000fd5b505050506040513d601f19601f820116820180604052508101906108e39190610efe565b6040516001600160e01b031960e085901b1681526001600160a01b03909216600483015260248201526044016020604051808303816000875af115801561092e573d6000803e3d6000fd5b505050506040513d601f19601f820116820180604052508101906109529190610ec9565b61072e5760405162461bcd60e51b815260206004820152600f60248201526e151c985b9cd9995c8819985a5b1959608a1b604482015260640161036b565b336001600160a01b037f00000000000000000000000000000000000000000000000000000000000000001614610a085760405162461bcd60e51b815260206004820152601f60248201527f4f6e6c7920565246436f6f7264696e61746f722063616e2066756c66696c6c00604482015260640161036b565b600b5550565b610a16610ba5565b600355565b6002546003546040516323b872dd60e01b815233600482015230602482015260448101919091526001600160a01b03909116906323b872dd906064016020604051808303816000875af1158015610a76573d6000803e3d6000fd5b505050506040513d601f19601f82011682018060405250810190610a9a9190610ec9565b610ad85760405162461bcd60e51b815260206004820152600f60248201526e151c985b9cd9995c8819985a5b1959608a1b604482015260640161036b565b600a80546000908152600d60205260409081902080546001600160a01b03191633908117909155915490517fb662f0beeb38e2aa790755858e25ee4edac93ec1ed278a0d1d28f86721a646b391610b329190815260200190565b60405180910390a2600a8054906000610b4a83610f17565b919050555060035460096000828254610b639190610eeb565b9091555050565b610b72610ba5565b6001600160a01b038116610b9c57604051631e4fbdf760e01b81526000600482015260240161036b565b61084681610bd2565b6001546001600160a01b0316331461072e5760405163118cdaa760e01b815233600482015260240161036b565b600180546001600160a01b038381166001600160a01b0319831681179093556040519116919082907f8be0079c531659141344cd1fd0a4f28419497f9722a3daafe3b4186f6b6457e090600090a35050565b60007f00000000000000000000000000000000000000000000000000000000000000006001600160a01b0316634000aea07f000000000000000000000000000000000000000000000000000000000000000084866000604051602001610c94929190918252602082015260400190565b6040516020818303038152906040526040518463ffffffff1660e01b8152600401610cc193929190610f30565b6020604051808303816000875af1158015610ce0573d6000803e3d6000fd5b505050506040513d601f19601f82011682018060405250810190610d049190610ec9565b5060008381526020818152604080832054815180840188905280830185905230606082015260808082018390528351808303909101815260a090910190925281519183019190912086845292909152610d5e906001610eeb565b600085815260208181526040918290209290925580518083018790528082019390935280518084038201815260609093019052815191012090505b92915050565b600060208284031215610db157600080fd5b81356001600160a01b0381168114610dc857600080fd5b9392505050565b600060208284031215610de157600080fd5b5035919050565b60008060408385031215610dfb57600080fd5b50508035926020909101359150565b60208082526021908201527f4f6e6c792061646d696e2063616e2063616c6c20746869732066756e6374696f6040820152603760f91b606082015260800190565b634e487b7160e01b600052601260045260246000fd5b600082610e7057610e70610e4b565b500690565b634e487b7160e01b600052601160045260246000fd5b8082028115828204841417610d9957610d99610e75565b600082610eb157610eb1610e4b565b500490565b81810381811115610d9957610d99610e75565b600060208284031215610edb57600080fd5b81518015158114610dc857600080fd5b80820180821115610d9957610d99610e75565b600060208284031215610f1057600080fd5b5051919050565b600060018201610f2957610f29610e75565b5060010190565b60018060a01b038416815260006020848184015260606040840152835180606085015260005b81811015610f7257858101830151858201608001528201610f56565b506000608082860101526080601f19601f8301168501019250505094935050505056fea26469706673582212203d40137fc7434845c62814f2869aaa6489e3b36b42dc7403f0e527d85bdcb9a864736f6c63430008140033",
  "linkReferences": {},
  "deployedLinkReferences": {}
}